:020000040800F2
:10000000A8CF002045010008550300084D03000853
:1000100051030008850200081508000800000000D0
:10002000000000000000000000000000F1040008D3
:100030008902000800000000D1030008150500082F
:100040005F0100085F0100085F0100085F01000810
:100050005F0100085F0100085F0100085F01000800
:100060005F0100085F0100085F0100085F010008F0
:100070005F0100085F0100085F0100085F010008E0
:100080005F0100085F0100085F0100085F010008D0
:100090005F0100085F0100085F0100085F010008C0
:1000A0005F0100085F0100085F0100085F010008B0
:1000B0005F0100085F0100085F0100085F010008A0
:1000C0005F0100085F0100085F0100085F01000890
:1000D0005F0100085F0100085F0100085F01000880
:1000E0005F0100085F0100085F0100085F01000870
:1000F0005F0100085F0100085F0100085F01000860
:100100005F0100085F0100085F0100085F0100084F
:100110005F0100085F0100085F0100085F0100083F
:100120005F0100085F0100085F0100085F0100082F
:10013000DFF80CD000F06EF8004800478508000892
:10014000A8CF00200648804706480047FEE7FEE7A4
:10015000FEE7FEE7FEE7FEE7FEE7FEE7FEE7FEE777
:10016000450500083101000840EA01039B0703D060
:1001700009E008C9121F08C0042AFAD203E011F8E6
:10018000013B00F8013B521EF9D27047D2B201E0A8
:1001900000F8012B491EFBD270470022F6E710B58C
:1001A00013460A4604461946FFF7F0FF204610BDE5
:1001B0002DE9F05F0546002092469B46884606469C
:1001C000814640241BE0284641464746224600F02F
:1001D00048F853465A46C01A914110D31146184662
:1001E000224600F02FF82D1A67EB01084F462246F1
:1001F0000120002100F026F817EB00094E41201ED7
:10020000A4F10104DFDC484631462A464346BDE8F6
:10021000F09F00001CB50948009009480190054670
:10022000009C06E0E06840F0010394E8070098476E
:100230001034AC42F6D3FFF77FFF00007C280008A3
:100240009C280008202A04DB203A00FA02F1002052
:1002500070479140C2F1200320FA03F31943904004
:100260007047202A04DB203A21FA02F0002170476F
:1002700021FA02F3D040C2F120029140084319460E
:1002800070470000FEE7000070470000CA7802F0E7
:100290000F0CD30644BF8B784CEA030C2DE9F047D2
:1002A00009880B0625D082465AF8145B00F1100E1F
:1002B00000264FF001094FF00F08002706E000BFAD
:1002C0001C600137082F06F1040611D009FA07F463
:1002D0000C42F6D008FA06F325EA03030CFA06F5F9
:1002E0001D43282A5346EBD0482AEAD17346E7E754
:1002F0000560B1F5807F38BFBDE8F087436800F145
:10030000100E00F1140A082500264FF001094FF0E5
:100310000F0805E027600135102D06F1040610D006
:1003200009FA05F70F42F6D008FA06F4A3430CFACF
:1003300006F42343282A5446ECD0482AEBD17446CD
:10034000E8E74360BDE8F08701617047FEE7000021
:10035000FEE700007047000010B5C17800294EF29A
:100360000011CEF200011AD04EF60C52CEF200026D
:100370001268072323EA12220F23C2F1040C23FA86
:1003800002F24378847890F800E003FA0CF32240FC
:100390001A43120101EB0E0383F8002300E08031C1
:1003A0000078012300F01F0203FA02F2C0F34210AA
:1003B00041F8202010BD000040F080604EF60C5146
:1003C00040F0FD70CEF200010860704700000000B0
:1003D000EFF30980BFF36F8F0D4B1A6820E9F00F20
:1003E00010602DE908404FF0500080F3118801F0B3
:1003F000C7FA4FF0000080F31188BDE80840196883
:100400000868B0E8F00F80F30988BFF36F8F70477A
:1004100014000020002941F21801C4F202010A6808
:100420000CBF22EA000010430860704741F2040C40
:10043000C4F2020CDCF8002002F00C02082A06D0FC
:10044000042A13D141F60032C0F2B70220E0DCF8F2
:100450000020DCF80030C2F38342DB0302F1020229
:1004600009D440F60013C0F23D0310E041F200222F
:10047000C0F27A020CE0DCF800309B0359BF41F671
:100480000033C0F2B70348F68053C0F25B035A430F
:100490000260DCF8002042F66803C2F30312C0F6E3
:1004A00000039A5C0168D1404160DCF80020C2F38F
:1004B00002229A5C21FA02F28260DCF80020C2F388
:1004C000C2229A5C42F66403D140C160DCF800208D
:1004D000C0F60003C2F381329A5CB1FBF2F1016114
:1004E0007047000000000000000000000000000055
:1004F000074B19680868B0E8F00F80F30988BFF36C
:100500006F8F4FF0000080F311884EF00D0E704792
:100510001400002080B54FF0500080F31188BFF325
:100520006F8FBFF34F8F01F067FD30B14EF604506F
:10053000CEF200004FF080510160002080F311885E
:1005400080BD000082B041F20400C4F2020050F805
:10055000041C002241F0010140F8041C0168CFF6A0
:10056000FF021140016050F8041C4FF6FF72CFF6F5
:10057000F662114040F8041C50F8041C21F480215C
:1005800040F8041C016821F4FE0101604FF41F01D2
:10059000416000210191009150F8041C41F4803128
:1005A00040F8041C50F8041C01F40031009101993A
:1005B00001310191009919B90199B1F5A06FF1D1FB
:1005C00050F8041C890354BF0021012100910099B7
:1005D000012936D142F20001C4F202010A6842F058
:1005E00010020A600A6822F007020A600A6842F0F4
:1005F00002020A600168016001680160016841F45B
:1006000080610160016821F47C110160016841F49E
:10061000E811016050F8041C41F0807140F8041C9E
:1006200050F8041C8901FBD5016821F00301016029
:10063000016841F002010160016801F00C01082924
:10064000FAD14EF60850CEF200004FF00061016082
:1006500002B070478289002918BF012122F400529C
:1006600042EA41318181704770B586B04FF48040D5
:100670000121FFF7CFFE04200121FFF7CBFE43F657
:10068000000440F20020C4F20104C1F60300A4F506
:10069000405504AE049028463146FFF7F7FD4FF46D
:1006A0008060ADF8100048208DF8130028463146D0
:1006B000FFF7ECFD4FF4E130009000204FF44021B3
:1006C00001900291ADF80C006946204600F036F822
:1006D0004FF44070FFF770FE40F22540C0F200106A
:1006E000059005A8FFF738FE204640F2255101226B
:1006F00000F00CF820460121FFF7ACFF06B070BDFA
:100700000088084018BF012070470000C1F3421361
:1007100001F01F0C1421022B08BF1021012B4FF0F8
:10072000010308BF0C21002A03FA0CF243580CBF46
:1007300023EA02021A4342507047000070B586B0A7
:100740000446008A0D46C98820F4405008432082A0
:10075000A0894EF6F3110840A9882A896B890843BD
:1007600010431843A081A08AA98920F4407008434F
:1007700001AEA0823046FFF759FE43F6000106F1B4
:100780000800C4F201018C4208BF06F10C000068A9
:100790001922B4F90C1050432A680123B1F1FF3F2C
:1007A000C8BF022302FA03F1B0FBF1F048F21F5177
:1007B000C5F2EB11A0FB01235A096FF0630302FBA2
:1007C0000300B4F90C300326B3F1FF3FC8BF042681
:1007D00000FA06F000F13200A0FB01014FF0070023
:1007E000C8BF0F2000EA511040EA0210208106B075
:1007F00070BD000010B5044600F008F82046402106
:10080000FFF77EFF0028F9D010BD00006FF35F21D5
:1008100081807047FEE700004CF64430C2F20000D1
:10082000006858B94CF6A430C2F20000006828B93C
:100830004CF64030C2F20000006808B1002070475A
:100840004CF66830C2F2000001684CF6BC20C2F2DF
:1008500000000068421E0120914208BF022070473C
:10086000B0B543F60005C4F201050446C1B22846FE
:10087000FFF7CCFF28464021FFF742FF0028F9D0C0
:100880002046B0BD84B04FF44070FFF795FDFFF7F0
:10089000EBFE102001210125FFF7BCFD40F20020F6
:1008A00041F20004C1F20300C4F20104039003A961
:1008B0002046FFF7EBFC20464FF40071FFF744FDA4
:1008C0004CF6643441F2BD40C2F20004C0F60000B0
:1008D00007A180220023CDE9005401F075FA0146FA
:1008E00006A001F077FE00F0ABFF00BFFEE700BFFF
:1008F00053746172745461736B0000003E3E3E722B
:100900006573756C743A256C640A0000F0B581B0AB
:100910000C464CF6983140F21406C2F20001C2F2C5
:1009200000060F683168002281F8592031680546B9
:10093000081D00F0F1FB10B1681C0FD027E03068F3
:100940004CF6CC22C06AC2F200020121136801FAFF
:1009500000F023EA00001060681C18D1BCB14CF60E
:100960006830C2F200004168326891608A6833687A
:10097000DA6032688B6804325A60326804328A6006
:100980003168486101680131016001B0F0BD306833
:100990007C1944600BD340F22400C2F200000068CE
:1009A0003168043101B0BDE8F04000F0DDBB40F239
:1009B0001C00C2F2000000683168043100F0D4FB72
:1009C0004CF63030C2F2000001688C4238BF04603F
:1009D00001B0F0BD4CF6C02540F22C064CF6CC2AF6
:1009E00040F214074CF6C4294CF6843B4CF6BC2864
:1009F000C2F20005C2F20006C2F2000AC2F200070B
:100A0000C2F20009C2F2000BC2F2000818E000BFF7
:100A100000F0D6FBDBF80C00C468201D00F07CFB66
:100A2000D8F800000138C8F80000286801382860AC
:100A300000F0EAFB206B00F0FFFB204600F0FCFB1F
:100A400028680028E4D1306802280AD34EF6045002
:100A5000CEF200004FF080510160BFF34F8FBFF323
:100A60006F8FDAF800103868C06A18B100200228C9
:100A7000E6D308E0306801284FF0000098BF012954
:100A800032D90228DCD3D9F800004CF69831013075
:100A9000C9F800004CF63030C2F20000C2F200018A
:100AA0000068096888422DD3DAF800103868C06AF7
:100AB00008B1002011E0306801284FF0000098BF15
:100AC00001290AD84CF630304CF69831C2F20000B9
:100AD000C2F2000100680968401A022828BF00F02D
:100AE0003FFC01F065FCABE74CF630304CF698313A
:100AF000C2F20000C2F2000100680968401A022830
:100B00009ED3C0E74FF0500080F31188BFF36F8F82
:100B1000BFF34F8FFEE700002DE9F04182B0846CF7
:100B20000190E4B1A16BE06B814222D2A16B8142C2
:100B300029D294F94570D4F83880226CFEB222B3E1
:100B4000606801A9FFF710FBD4E90101226C0025C0
:100B500010446060884224BF206860601DE04FF050
:100B6000500080F31188BFF36F8FBFF34F8F00BF2A
:100B7000FEE74FF0500080F31188BFF36F8FBFF393
:100B80004F8F00BFFEE7002528E02068002520B930
:100B9000A06801F00FFBA560054608F10100FF2EDB
:100BA000A0630ED000F0CAFAB84217D97F2E12D136
:100BB0004FF0500080F31188BFF36F8FBFF34F8F5A
:100BC000FEE754F8240F48B1204601F05DFB0028F1
:100BD00018BF012502E0701C84F84500284602B0C9
:100BE000BDE8F08106480068006880F3088862B6B6
:100BF00061B6BFF34F8FBFF36F8F00DF00BF000000
:100C000008ED00E02DE9F04381B040F21808C2F28F
:100C10000008D8F800200546D2680E46D46804F1D2
:100C20000409484600F078FA94F8280041070CD4EB
:100C300000F0FA0084F828001CE000BF711B81421C
:100C400010D3216A204688473D46A0692461471990
:100C5000B7426760F2D9AE4201D2AF42F1D2D8F8C2
:100C6000000004E040F22800C2F20000006849469B
:100C700000F07AFA216A204601B0BDE8F043084747
:100C800081B00020009040F20800C2F2000000682D
:100C90004FF0500181F31188BFF36F8FBFF34F8F77
:100CA000013001D0FEE700BF00980028FCD001B061
:100CB0007047000084B040F2180440F2100940F27E
:100CC000280A4CF69C3BC2F20004C2F20009C2F2B0
:100CD000000AC2F2000BE8462068076817B1C06836
:100CE000066800E0002600F043FE01F07FF9D9F825
:100CF00000100546884209D22068016891B1C06899
:100D00004FF0FF310068FFF77DFFF5E7C9F80050AD
:100D100097B1AE4210D801F04BFB30462946FFF7A1
:100D200071FF29E0DAF80010CAF800002160C9F864
:100D3000005001F03DFB1FE00FB1002205E0DAF8A2
:100D400000000068B0FA80F04209DBF80000711B77
:100D500000F090FB01F02CFB70B94EF60450CEF27F
:100D600000004FF080510160BFF34F8FBFF36F8FD2
:100D700002E0206800F0F8F9DBF8000041460022AC
:100D800000F0FAFE0028A7D00098B0F1FF3F03DC86
:100D9000DDE901200399904700980028ECD4029DDA
:100DA000686910B1281D00F0B7F901F01FF9D9F8F2
:100DB0000010064688420ED22068016831B1C06832
:100DC0004FF0FF310068FFF71DFFF5E7DAF800107C
:100DD000CAF8000021600098C9F8006001380828AE
:100DE000CAD8DFE800F005053A236205053A23007A
:100DF00095F82800019BAA6940F0010185F82810A8
:100E0000D718294641F8047FB7422D6104D99E4284
:100E1000AFD29F4203D2ACE7F31A934218D34307F1
:100E200022D400F0FA0085F8280052E095F8280056
:100E300040F00101019885F828100028A8614CD0E5
:100E40003044294641F8040FB0422D613FF691AF7E
:100E5000DAF8000000F088F98EE795F8280000F035
:100E6000FE0085F8280087E70198D946C346D0469A
:100E70000F46104407E000BF301A88421DD3296A8C
:100E8000284688475046A9692D6101EB000AB24502
:100E9000C5F804A0F0D9864201D28245EFD220687D
:100EA000394600F061F9C2460DE095F82800810747
:100EB000D5D4284600F0C0F95EE7D8F800003946DE
:100EC000C24600F051F9D846CB4640F21009C2F2B2
:100ED0000009296A284688474EE74FF0500080F302
:100EE0001188BFF36F8FBFF34F8F00BFFEE7000085
:100EF000F0B581B0044600F063F994F94560012E25
:100F000016DB04F124050AE02046FFF705FE002861
:100F100018BF00F037FC70B2013E012808DDA06C5C
:100F20000028F1D1286818B1284601F0ADF9EEE7A4
:100F3000FF2684F8456000F067F900F041F994F964
:100F40004470012F0FDB04F1100500BF286850B179
:100F5000284601F099F9002818BF00F013FC78B278
:100F6000013F0128F2DC84F8446001B0BDE8F040A4
:100F700000F04AB970B5044600F0FAFC40F22001D6
:100F8000C2F2000108684CF6203EC2F2000E58B1D1
:100F900084B304F007001138A04226BF24F00700F4
:100FA00000F11003002326E040F2AC20C2F2000062
:100FB000C21D430700F5484318BF22F007004CF656
:100FC0005C32C2F200020026C2E9000623F00702EA
:100FD000A2F108030B6042E902661A1A0B68CEF808
:100FE0000020C0E900324CF62C30C2F20000026052
:100FF000002CCED10023012B4FF000046CDBDEF877
:101000000000834268D84CF65C32C2F200021568D8
:101010006C689C4207D200BF286820B144682A4609
:1010200005469C42F8D30868854212D0D2F800C029
:101030002E68E01A1128166031D3EC1862070AD026
:101040004FF0500080F31188BFF36F8FBFF34F8FC5
:10105000FEE7002440E060606B604CF65C33C2F257
:10106000000300BF1A461B68A342FBD35068161842
:10107000A64203D164682044144650606668A019F3
:10108000984201D0184606E00868834203D0D3E9AD
:10109000000131446160A242206018BF14604CF628
:1010A0002C306968DEF80020C2F200000368511A93
:1010B0009942CEF8001038BF01604CF638326868AB
:1010C000C2F20002136840F0004000210CF1080455
:1010D000C5E90010581C106001F06AF9600708D0DB
:1010E0004FF0500080F31188BFF36F8FBFF34F8F25
:1010F000FEE7204670BD0000034640F68140C0F682
:1011000000004FF0807C21F0010103E90310A3F1FE
:10111000400043F8202C7047D0E9013201699A6001
:10112000D1F804C082688445536008BF4A60002239
:101130000261086801380860086870474CF6BC20F6
:10114000C2F20000006870474FF0FF31024642F8DB
:10115000081F00214260C0E90322016070470000BF
:10116000002101617047000080B5D1F800C01CF17A
:10117000010207D000F108039E465B681A686245C9
:10118000FAD901E0D0F810E0DEF8042008614A60E6
:101190009160C1F808E0CEF80410016801310160E7
:1011A00080BD0000D0F800C0436808619A684B60B9
:1011B0008A609A68996051600CF101010160704782
:1011C0004FF0500080F31188BFF36F8FBFF34F8F44
:1011D00040F20800C2F2000001684A1C026001B13E
:1011E00070474EF60450CEF200000068000608BFBB
:1011F00070474FF0500080F31188BFF36F8FBFF33B
:101200004F8F00BFFEE7000040F20800C2F200006E
:10121000016839B10139016018BF7047002080F3BF
:10122000118870474FF0500080F31188BFF36F8F23
:10123000BFF34F8FFEE70000B0B5002808BFB0BD78
:1012400050F8041C002908D44FF0500080F3118896
:10125000BFF36F8FBFF34F8FFEE7A0F10804226842
:101260004AB14FF0500080F31188BFF36F8FBFF386
:101270004F8F00BFFEE721F0004140F8041C0546F7
:1012800000F076FB4CF62031C2F2000155F8040C58
:101290000B682A46184408604CF65C31C2F2000123
:1012A00008460968A142FBD34368C518A54204D18A
:1012B00052F8042C04461A4442606368E2188A42D9
:1012C00001D00A460AE040F22002C2F2000212688F
:1012D000914203D0D1E9002119446160A04222600B
:1012E00018BF04604CF63C30C2F2000001680131C6
:1012F0000160BDE8B04001F05BB8000040F20400BE
:10130000C2F20000016844F6D352C1F26202A1FBAE
:10131000021399094CF6B823C2F2000319606FF06A
:101320007F43B3FBF1F14CF62833C2F2000319609E
:101330004CF6B421C2F2000101230B704EF21001F1
:10134000CEF2000100230B608B600068A0FB02025C
:101350004FF0FF3000EB92104860072008607047A4
:1013600070B54CF62831C2F200010968044681428A
:1013700038BF0C4672B6BFF34F8FBFF36F8FFFF7C6
:101380004BFA002855D04EF21001CEF20001062093
:1013900008604CF6B82C4EF6045E8B68C2F2000C66
:1013A000CEF2000EDCF80020002B08BF1346601EB2
:1013B000DEF8005002FB00336A0106D54FF00072E0
:1013C000CEF80020DCF800209B1A4CF6B42EC2F2B6
:1013D000000E9EF80020002A18BF5E229A1A98BFBD
:1013E0001A4600234A608B600B6843F001030B60D0
:1013F00024B1BFF34F8F30BFBFF36F8F062362B6A8
:10140000BFF34F8FBFF36F8F72B6BFF34F8FBFF332
:101410006F8F0B600B68DB030DD48868DCF800204D
:1014200002FB04F31B1AB3FBF2F0461C7243D21A00
:1014300013E062B670BDDCF800608C68751EA21AFD
:101440009EF800405319002C1A4618BF5E24B34280
:1014500088BF2A46A34298BF2A464A6000228A6073
:1014600007220A60DCF80020013A4A6000F036FAF0
:1014700062B670BD70B515460E460446FFF7A0FE75
:1014800094F84400FF2804BF002084F8440094F836
:101490004500FF2804BF002084F84500FFF7B4FE94
:1014A000A06B28B904F1240031462A4600F08EF9D9
:1014B0002046BDE87040FFF71BBD000080B582B03C
:1014C00019A001F0BDF9FFF77BFE4CF67C3C41F220
:1014D0005150C2F2000C4FF0030EC0F6000018A1EC
:1014E00080220023CDE900EC00F06EFC4CF6803C3D
:1014F00041F26D50C2F2000C4FF0020EC0F6000037
:1015000011A140220023CDE900EC00F05DFCFFF7C3
:101510007BFE4CF66430C2F20000006802B0BDE809
:10152000804000F08FB800BF68656C6C6F207461FC
:10153000736B207375636365737321210000000072
:101540005461736B310000005461736B3200000012
:1015500043F60004C4F2010420466121FFF74AF972
:101560004FF4FA5000F008F8F6E700004FF47A6004
:1015700000F002F8FAE7000070B5002856D04CF6EB
:10158000C421C2F200010A684AB14FF0500080F352
:101590001188BFF36F8FBFF34F8F00BFFEE7054683
:1015A000086840F21404013008604CF69830C2F22A
:1015B0000000C2F2000406682068002180F859107B
:1015C00020680430FFF7A8FD60B920684CF6CC22F3
:1015D000C06AC2F200020121136801FA00F023EA96
:1015E000000010602068AD19456009D340F2240066
:1015F000C2F20000006821680431FFF7B5FD10E079
:1016000040F21C00C2F20000006821680431FFF7BC
:10161000ABFD4CF63030C2F2000001688D4238BF9D
:10162000056000F0C5FE002818BF70BD4EF60450DE
:10163000CEF200004FF080510160BFF34F8FBFF337
:101640006F8F70BD70B50446FFF7BAFD40F2140607
:10165000002CC2F2000608BF3468251D2846FFF79B
:101660005BFDA0B9E06A40F22C0200EB8001C2F2FF
:10167000000252F8211051B94CF6CC22C2F20002FD
:101680000121136801FA00F023EA00001060A06A4B
:1016900018B104F11800FFF73FFD4CF6C820C2F264
:1016A00000000168013101603068844216D04CF6B8
:1016B000BC20C2F2000001680139016040F21C0048
:1016C000C2F2000001680968B1B100684CF630311F
:1016D000C068C2F200010068086014E04CF6843073
:1016E000C2F200002946FFF75DFD4CF6C020C2F2B1
:1016F00000000168013105E04CF63030C2F2000014
:101700004FF0FF310160FFF77FFD3068844205D064
:10171000206BFFF791FD2046FFF78EFD4CF6583009
:10172000C2F200000068E8B13068844218BF70BDA2
:101730004CF6C420C2F20000006840B14FF05000E7
:1017400080F31188BFF36F8FBFF34F8FFEE74EF624
:101750000450CEF200004FF080510160BFF34F8F74
:10176000BFF36F8F70BD00004CF63431C2F2000140
:10177000096801604CF69831C2F2000109684160C5
:10178000704700004CF6A430C2F200000121016055
:101790007047000078B110B50C4640F21401C2F257
:1017A000000109681831FFF7DFFC20460121BDE880
:1017B0001040FFF7ABB84FF0500080F31188BFF333
:1017C0006F8FBFF34F8F00BFFEE7000068B310B507
:1017D00040F2140CC2F2000CD0F804E0DCF8003047
:1017E000002AC3F81CE0DEF80830DCF80040236271
:1017F000DCF80030DEF8084003F118036360DCF821
:101800000030044603F11803CEF80830DCF800304D
:101810009862036818BF4FF0FF3101330846114644
:101820002360BDE81040FFF771B84FF0500080F31F
:101830001188BFF36F8FBFF34F8F00BFFEE700002B
:1018400080B582B04CF6243C40F6D510C2F2000CB4
:101850004FF0000EC0F600001EA14FF4807200236E
:10186000CDE900EC00F0B0FA012808BF00F060FEFE
:10187000411C25D001281CD14FF0500080F3118865
:10188000BFF36F8FBFF34F8F4CF63030C2F20000C2
:101890004FF0FF3101604CF65830C2F200000121D8
:1018A00001604CF69830C2F200000021016000F0A7
:1018B000ABF842F67800C0F60000006802B080BDC8
:1018C0004FF0500080F31188BFF36F8FBFF34F8F3D
:1018D000FEE700BF49444C4500000000B0B54CF69F
:1018E0009834C2F200044CF630312268C2F2000192
:1018F0000B6802449A4208D94FF0500080F31188D7
:10190000BFF36F8FBFF34F8FFEE722680968024471
:101910008A4214D14CF6C421C2F20001096891B187
:10192000D8B10546FFF74CFC4CF64030C2F200003F
:10193000016801310160FFF767FC2846681E2168D5
:1019400008442060B0BD4FF0500080F31188BFF311
:101950006F8FBFF34F8F00BFFEE74FF0500080F353
:101960001188BFF36F8FBFF34F8F00BFFEE70000FA
:101970004CF6C420C2F200000168013101607047DA
:101980004CF6C420C2F20000006830B14CF6A4301E
:10199000C2F200000121016070474CF6A430C2F28F
:1019A0000000002101604CF6CC20C2F2000000686B
:1019B000B0FA80F0C0B2C0F11F0040F22C0100EB81
:1019C0008000C2F2000151F8202092B101EB8000AA
:1019D000416800F1080249689142416001D14968BB
:1019E0004160406840F21401C068C2F20001086022
:1019F00070474FF0500080F31188BFF36F8FBFF333
:101A00004F8F00BFFEE70000B0B584B04EF200403B
:101A1000CEF2000001784CF6AC220291FF21017059
:101A20000178C2F200028DF807109DF8071001F04E
:101A3000500111704CF6B021C2F2000107220A6079
:101A40009DF90720B2F1FF3F0BDC06220A609DF8EA
:101A50000730013A5B008DF807309DF90730002B05
:101A6000F4D40A68032A31D14FF440720A60029913
:101A70000170D0F8201941F4E001C0F82019D0F825
:101A8000201941F0E041C0F82019FFF737FC40F27F
:101A90000804C2F2000400252560FFF7A3F8FFF751
:101AA0006FFF039520684FF0500181F31188BFF359
:101AB0006F8FBFF34F8F013002D000BFFEE700BF32
:101AC00003980028FCD0002004B0B0BD4FF05000B7
:101AD00080F31188BFF36F8FBFF34F8FFEE70000D5
:101AE000F0B581B0E8B3A0FB0137D7BB01FB00F331
:101AF00013F1550F35D8054603F154000F4616462D
:101B0000FFF738FA4FF0000440B30146002F18BF2A
:101B100054310160C0E90F570546FFF751FB2868B3
:101B2000D5E90F12AC6302FB0103013901FB02018D
:101B3000C5E90103FF20E96085F8440085F8450008
:101B400005F11000FFF700FB05F12400FFF7FCFA98
:101B5000FFF75AFBAC642C4685F85060204601B074
:101B6000F0BD4FF0500080F31188BFF36F8FBFF3CB
:101B70004F8F00BFFEE700002DE9F04F85B00492C3
:101B800098B10C460546002900F0B78000F01AFA1B
:101B9000A8B9049898B14FF0500080F31188BFF3B2
:101BA0006F8FBFF34F8F00BFFEE74FF0500080F301
:101BB0001188BFF36F8FBFF34F8F00BFFEE705F1B2
:101BC0001000019005F1240000900DF108090DF1BD
:101BD000100A4FF000080CE02846FFF789F900F0E2
:101BE000E7FBFFF7EDFAAF6BFFF70EFB002F00F0FE
:101BF0009280FFF7E5FAD5F838B0BBF1000F27D097
:101C00002A6C5AB1D5E902011144E960814224BF2E
:101C10002868E860E9682046FEF7A6FAABF1010003
:101C2000A863286970B1019800F02EFB50B14EF600
:101C30000450CEF200004FF080510160BFF34F8F8F
:101C4000BFF36F8FFFF7E0FA00200126A0B963E031
:101C5000049850B1B8F1000F02D14846FFF784FD57
:101C60004FF00108012038B956E0FFF7CDFA002601
:101C70000020002850D000BFFFF7C6FAFFF778FE1B
:101C8000FFF79EFA95F84400FF2804BF002085F86E
:101C9000440095F84500FF2804BF002085F8450062
:101CA000FFF7B2FA4846514600F03AF800287FF4B0
:101CB00093AFFFF785FAAF6BFFF7A6FA2FB128466F
:101CC000FFF716F900F074FB93E704990098FFF70B
:101CD00061FD2846FFF70CF900F06AFB00287FF44D
:101CE00088AF4EF60450CEF200004FF080510160F4
:101CF000BFF34F8FBFF36F8F7BE7286C00283FF453
:101D000045AF4FF0500080F31188BFF36F8FBFF3E2
:101D10004F8F00BFFEE70026304605B0BDE8F08FCC
:101D2000C8B111B370B504460D46FFF749FA4CF639
:101D3000983C40F21400C2F2000CC2F20000DCF841
:101D400000206368016891F85910C1B10068002152
:101D500080F8591031E04FF0500080F31188BFF344
:101D60006F8FBFF34F8F00BFFEE74FF0500080F33F
:101D70001188BFF36F8FBFF34F8F00BFFEE7286856
:101D80002946451C1ED04CF6343EC2F2000EDEF849
:101D900000502668B54201D09A420CD2D21A904225
:101DA00009D9801A0860DEF800002060DCF8000025
:101DB0006060002402E0002008600124FFF724FA9C
:101DC000204670BD0024F9E72DE9F04F81B097005F
:101DD00081463846984692460E46FFF7CBF890B1BA
:101DE00005465C20FFF7C6F850B15C210446FEF7BB
:101DF000D4F9256354B94FF0FF3001B0BDE8F08F3E
:101E00002846FFF719FA0024002CF4D0206B0A9D15
:101E10003946A522FEF7BAF9206B76B104F13401F8
:101E2000002200BFB35C8B54B35C1BB10E2A02F1DD
:101E30000102F7D1002184F84210202D09D34FF080
:101E4000500080F31188BFF36F8FBFF34F8F00BF37
:101E5000FEE700EB8A00043804F1040B20F00706CB
:101E60000B9F5846E562E564FFF77AF904F1180024
:101E7000FFF776F9C5F12000A06130464946424699
:101E800024616462FFF738F9002F206018BF3C60BE
:101E9000FFF796F94CF6BC20C2F20000016840F250
:101EA000140601310160C2F2000631684CF6583A5E
:101EB00040F22C07C2F2000AC2F2000751B1DAF870
:101EC000000000283FD13068E16AC06A884298BFAC
:101ED000346038E034600068012834D1002500BF48
:101EE0007819FFF731F91435B5F5207FF8D14CF6A4
:101EF000F828C2F200084046FFF726F94CF60C39E4
:101F0000C2F200094846FFF71FF94CF64430C2F20E
:101F10000000FFF719F94CF68430C2F20000FFF719
:101F200013F94CF66830C2F20000FFF70DF940F2E9
:101F30001C00C2F20000C0F8008040F22400C2F28F
:101F40000000C0F800904CF6C820C2F20000016802
:101F50004CF6CC22013101606164E06AC2F20002F9
:101F6000012113688140194300EB8000116007EBE9
:101F700080014A6861619368A260E3609368C2F877
:101F800008B0C3F804B057F82010013147F820100A
:101F9000FFF73AF9DAF8000078B13068E16AC06A10
:101FA00088420AD24EF60450CEF200004FF0805123
:101FB0000160BFF34F8FBFF36F8F012001B0BDE809
:101FC000F08F00004CF65830C2F200000068002884
:101FD00004BF012070474CF6C420C2F20000006824
:101FE000B0FA80F040094000704700004CF698308D
:101FF000C2F20000006870472DE9F04F4CF6C42093
:10200000C2F20000006848B14CF64030C2F2000055
:102010000168013101600020BDE8F08F4CF6983076
:10202000C2F20000016811F1010EC0F800E02DD3EA
:1020300040F21C00C2F20000026812684AB14FF080
:10204000500080F31188BFF36F8FBFF34F8F00BF35
:10205000FEE740F22403C2F2000302681F68076033
:102060001A604CF63432C2F2000213680133136076
:10207000026812681AB10068C068006801E04FF099
:10208000FF304CF63032C2F2000210604CF63031B4
:10209000C2F20001086840F22C088645C2F200082E
:1020A00001D200206EE040F21C0AC2F2000ADAF807
:1020B00000004FF000090068002858D04CF6CC2BE7
:1020C000C2F2000B002025E0F96ADBF800200123B2
:1020D0008B401A43CBF8002001EB810208EB82030E
:1020E0005E687B61B468BE60FC60B468B5606560C2
:1020F00058F82230013348F8223040F21402C2F27C
:1021000000021268D26ADAF80030914288BF0120DA
:10211000196881B3DAF80030DB68DF683D4655F8AE
:10212000044FA64529D3D7E902637C69B360D4F88C
:1021300004C0FB68AC455E6008BF6360C7F81490DC
:102140002368013B2360BC6A002CBDD0D7E907633C
:102150006268B3603B6A07F118018A425E6008BF9B
:102160006360C7F82890216801392160ACE74FF01F
:10217000FF34002005E04FF0FF344CF63031C2F25E
:1021800000010C6040F21401C2F200010968C96A42
:1021900001EB810158F8211001294CF6A431C2F25B
:1021A000000188BF01200968002918BF0120BDE88F
:1021B000F08F0000002804BF0020704740F2140197
:1021C000C2F200010968814209D04FF0500080F34B
:1021D0001188BFF36F8FBFF34F8F00BFFEE7016D14
:1021E000002946D04A1E014602654FF000003FD14B
:1021F0000A46CB6ACA6C934208BF704770B50E1D81
:1022000030460D46FEF788FF4CF6CC2C2946C2F22C
:10221000000C48B9C86A0123DCF8005003FA00F04A
:1022200025EA0000CCF80000CB6CC3F12000CB62A3
:1022300088610120DCF8005000FA03F22A43CCF850
:10224000002040F22C0C03EB8302C2F2000C0CEBDA
:1022500082056B684D619C688B60CC609C689E6059
:1022600066605CF8221001314CF82210BDE8704025
:1022700070474FF0500080F31188BFF36F8FBFF3AA
:102280004F8F00BFFEE70000C068C06850B310B5B4
:10229000D0E90713826A8B60036AD2F804E000F188
:1022A000180C59600021E64508BF5360816211682F
:1022B000013911604CF6C421C2F200010968D1B1A4
:1022C0004CF64431C2F200010A684B6801329C6846
:1022D000C36104629C68C3F808C0C4F804C081628A
:1022E0000A604AE04FF0500080F31188BFF36F8F0F
:1022F000BFF34F8FFEE7D0E9021342698B60D2F83B
:1023000004E0C36800F1040CE645596008BF53605F
:1023100011684CF6CC2401391160C16AC2F2000484
:102320004FF0010E22680EFA01F340F22C0E1A4310
:1023300001EB8101C2F2000E22600EEB81035C68AA
:102340004361A2688460C260A268C4F808C0C2F891
:1023500004C05EF8212001324EF8212040F21C0119
:10236000C2F200010A681268DAB109684CF630322C
:10237000C968C2F200020968116040F21401C2F299
:102380000001C06A0968C96A8842BDE8104091BF6F
:1023900000204CF6A431C2F20001012088BF086081
:1023A00070474CF63031C2F200014FF0FF3297E730
:1023B0002DE9F04F81B04CF6C424C2F2000420682D
:1023C00068B1FEF7FDFE206801382060206880B10A
:1023D0000024FEF719FF204601B0BDE8F08F4FF052
:1023E000500080F31188BFF36F8FBFF34F8F00BF92
:1023F000FEE74CF6BC20C2F2000000680028E7D0DF
:102400004CF6443AC2F2000ADAF800104CF6A4384E
:102410000029C2F2000868D04CF6CC2B40F22C0404
:1024200040F2140E4FF0000C4FF00109C2F2000B05
:10243000C2F20004C2F2000EDAF80C10CE68D6E93F
:102440000721B76A91607868316A06F11805A842D9
:102450004A6008BF7960C6F828C03868013838601B
:10246000D6E90202716982604A68F568371DBA428E
:10247000686008BF4D60086801380860F06ADBF8E2
:10248000001009FA00F21143CBF8001000EB8001B4
:1024900004EB810255687261AB68B560F360AB68AC
:1024A000AF605F6054F82120013244F82120DEF84B
:1024B0000010C96A884228BFC8F80090DAF8000006
:1024C0000028B9D18EB140F21C00C2F200000168B0
:1024D000096819B10068C068006801E04FF0FF307A
:1024E0004CF63031C2F2000108604CF64034C2F2C2
:1024F0000004256855B10126FFF77EFD002818BFAE
:10250000C8F80060013DF7D100202060D8F8000035
:1025100000283FF45DAF4EF60450CEF200004FF0BD
:1025200080510160BFF34F8F0124BFF36F8F50E7DD
:1025300070B582B0FEF744FE4CF69C36C2F200063F
:102540003068E8B94CF6D024C2F200042046FEF709
:10255000FBFD4CF6E425C2F200052846FEF7F4FD2B
:1025600040F21800C2F20000046040F22800C2F2FB
:1025700000000560052010210022FFF7B1FA30604D
:10258000FEF742FE306888B14CF6A03640F6B54002
:10259000C2F200060225C0F600000CA14FF4007242
:1025A0000023CDE90056FFF70FFC00E000200028D3
:1025B0001CBF02B070BD4FF0500080F31188BFF314
:1025C0006F8FBFF34F8F00BFFEE700BF546D7220C7
:1025D000537663000FB4054B10B503A9044A029863
:1025E00000F018F810BC5DF814FB0000610800084A
:1025F0000000002002E008C8121F08C1002AFAD11A
:1026000070477047002001E001C1121F002AFBD172
:10261000704700002DE9FF4F8BB09A460F460446E5
:10262000002606E025280BD052460D999047641CE1
:10263000761C20780028F5D10FB03046BDE8F08F29
:102640000025A94601227D4900E0054314F8013F19
:10265000203B02FA03F00842F7D120782E2817D148
:1026600014F8010F45F004052A280ED06FF02F0250
:102670002078A0F1300109290AD809EB890102EB81
:10268000410100EB0109641CF2E757F8049B641C4C
:1026900020786C280DD004DC4C2812D06A2811D187
:1026A00004E074280DD07A280CD10AE045F4001516
:1026B00007E0617845F48015814202D1641C05F57C
:1026C0008015641C207869283ED006DC0028B3D031
:1026D00063280BD0642804D136E0732810D0752805
:1026E0005CD052460D999047761CA5E017F8040B74
:1026F0008DF8000000208DF80100E846012003E07D
:1027000057F8048B4FF0FF3069074FF0000501D4F4
:102710000AE06D1C4D450DDA8542FADB18F805100C
:102720000029F6D106E06D1C8542FCDB18F8051087
:102730000029F8D12E4404E018F8010B52460D99F7
:1027400090476D1EF8D277E000200A90C5F3025042
:102750004FF00A0B02280CD001CFC117021E71F1F5
:1027600000020CDA0023D0EB030063EB01012D2201
:1027700008E0FF1D27F00707F7E80201EEE72A054A
:1027800004D52B228DF82420012203E0EA070FD084
:102790002022F7E70DF12008089218E000200A90A7
:1027A000C5F302504FF00A0B022803D001CF0021DD
:1027B0000022EFE7FF1D27F00707F7E80201F7E720
:1027C0005A460A9BFDF7F4FC303208F8012D50EA16
:1027D0000102F5D1ADEB080000F1200B680701D430
:1027E0004FF00109D94502DDA9EB0B0000E0002004
:1027F0008146002506E009A85246405D0D999047A4
:102800006D1C761C08988542F5DB04E030205246AA
:102810000D999047761CB9F10001A9F10109F5DC89
:1028200005E018F8010B52460D999047761CBBF154
:102830000001ABF1010BF4DC641CFAE6092801008D
:1028400010B5044601E0FEF70BF814F8010B04493B
:102850000028F8D1BDE810400A20FEF701B80000BA
:10286000000000200204060800000000010203042A
:1028700001020304060708091F000000A028000841
:102880000000002010000000F4250008B028000817
:102890001000002098CF000004260008000000006F
:1028A0000000000000A24A04AAAAAAAA0000000090
:0400000508000131BD
:00000001FF
